{
  "_format": "hh-sol-artifact-1",
  "contractName": "NFT",
  "sourceName": "contracts/NFT.sol",
  "abi": [
    {
      "inputs": [],
      "stateMutability": "nonpayable",
      "type": "constructor"
    },
    {
      "anonymous": false,
      "inputs": [
        {
          "indexed": true,
          "internalType": "address",
          "name": "owner",
          "type": "address"
        },
        {
          "indexed": true,
          "internalType": "address",
          "name": "approved",
          "type": "address"
        },
        {
          "indexed": true,
          "internalType": "uint256",
          "name": "tokenId",
          "type": "uint256"
        }
      ],
      "name": "Approval",
      "type": "event"
    },
    {
      "anonymous": false,
      "inputs": [
        {
          "indexed": true,
          "internalType": "address",
          "name": "owner",
          "type": "address"
        },
        {
          "indexed": true,
          "internalType": "address",
          "name": "operator",
          "type": "address"
        },
        {
          "indexed": false,
          "internalType": "bool",
          "name": "approved",
          "type": "bool"
        }
      ],
      "name": "ApprovalForAll",
      "type": "event"
    },
    {
      "anonymous": false,
      "inputs": [
        {
          "indexed": true,
          "internalType": "address",
          "name": "from",
          "type": "address"
        },
        {
          "indexed": true,
          "internalType": "address",
          "name": "to",
          "type": "address"
        },
        {
          "indexed": true,
          "internalType": "uint256",
          "name": "tokenId",
          "type": "uint256"
        }
      ],
      "name": "Transfer",
      "type": "event"
    },
    {
      "inputs": [
        {
          "internalType": "address",
          "name": "to",
          "type": "address"
        },
        {
          "internalType": "uint256",
          "name": "tokenId",
          "type": "uint256"
        }
      ],
      "name": "approve",
      "outputs": [],
      "stateMutability": "nonpayable",
      "type": "function"
    },
    {
      "inputs": [
        {
          "internalType": "address",
          "name": "owner",
          "type": "address"
        }
      ],
      "name": "balanceOf",
      "outputs": [
        {
          "internalType": "uint256",
          "name": "",
          "type": "uint256"
        }
      ],
      "stateMutability": "view",
      "type": "function"
    },
    {
      "inputs": [
        {
          "internalType": "uint256",
          "name": "tokenId",
          "type": "uint256"
        }
      ],
      "name": "getApproved",
      "outputs": [
        {
          "internalType": "address",
          "name": "",
          "type": "address"
        }
      ],
      "stateMutability": "view",
      "type": "function"
    },
    {
      "inputs": [
        {
          "internalType": "address",
          "name": "owner",
          "type": "address"
        },
        {
          "internalType": "address",
          "name": "operator",
          "type": "address"
        }
      ],
      "name": "isApprovedForAll",
      "outputs": [
        {
          "internalType": "bool",
          "name": "",
          "type": "bool"
        }
      ],
      "stateMutability": "view",
      "type": "function"
    },
    {
      "inputs": [],
      "name": "name",
      "outputs": [
        {
          "internalType": "string",
          "name": "",
          "type": "string"
        }
      ],
      "stateMutability": "view",
      "type": "function"
    },
    {
      "inputs": [
        {
          "internalType": "uint256",
          "name": "tokenId",
          "type": "uint256"
        }
      ],
      "name": "ownerOf",
      "outputs": [
        {
          "internalType": "address",
          "name": "",
          "type": "address"
        }
      ],
      "stateMutability": "view",
      "type": "function"
    },
    {
      "inputs": [
        {
          "internalType": "string",
          "name": "uri",
          "type": "string"
        },
        {
          "internalType": "address",
          "name": "marketPlaceAddress",
          "type": "address"
        },
        {
          "internalType": "address",
          "name": "creator",
          "type": "address"
        }
      ],
      "name": "safeMint",
      "outputs": [
        {
          "internalType": "uint256",
          "name": "",
          "type": "uint256"
        }
      ],
      "stateMutability": "payable",
      "type": "function"
    },
    {
      "inputs": [
        {
          "internalType": "address",
          "name": "from",
          "type": "address"
        },
        {
          "internalType": "address",
          "name": "to",
          "type": "address"
        },
        {
          "internalType": "uint256",
          "name": "tokenId",
          "type": "uint256"
        }
      ],
      "name": "safeTransferFrom",
      "outputs": [],
      "stateMutability": "nonpayable",
      "type": "function"
    },
    {
      "inputs": [
        {
          "internalType": "address",
          "name": "from",
          "type": "address"
        },
        {
          "internalType": "address",
          "name": "to",
          "type": "address"
        },
        {
          "internalType": "uint256",
          "name": "tokenId",
          "type": "uint256"
        },
        {
          "internalType": "bytes",
          "name": "_data",
          "type": "bytes"
        }
      ],
      "name": "safeTransferFrom",
      "outputs": [],
      "stateMutability": "nonpayable",
      "type": "function"
    },
    {
      "inputs": [
        {
          "internalType": "address",
          "name": "operator",
          "type": "address"
        },
        {
          "internalType": "bool",
          "name": "approved",
          "type": "bool"
        }
      ],
      "name": "setApprovalForAll",
      "outputs": [],
      "stateMutability": "nonpayable",
      "type": "function"
    },
    {
      "inputs": [
        {
          "internalType": "bytes4",
          "name": "interfaceId",
          "type": "bytes4"
        }
      ],
      "name": "supportsInterface",
      "outputs": [
        {
          "internalType": "bool",
          "name": "",
          "type": "bool"
        }
      ],
      "stateMutability": "view",
      "type": "function"
    },
    {
      "inputs": [],
      "name": "symbol",
      "outputs": [
        {
          "internalType": "string",
          "name": "",
          "type": "string"
        }
      ],
      "stateMutability": "view",
      "type": "function"
    },
    {
      "inputs": [
        {
          "internalType": "uint256",
          "name": "tokenId",
          "type": "uint256"
        }
      ],
      "name": "tokenURI",
      "outputs": [
        {
          "internalType": "string",
          "name": "",
          "type": "string"
        }
      ],
      "stateMutability": "view",
      "type": "function"
    },
    {
      "inputs": [
        {
          "internalType": "address",
          "name": "from",
          "type": "address"
        },
        {
          "internalType": "address",
          "name": "to",
          "type": "address"
        },
        {
          "internalType": "uint256",
          "name": "tokenId",
          "type": "uint256"
        }
      ],
      "name": "transferFrom",
      "outputs": [],
      "stateMutability": "nonpayable",
      "type": "function"
    }
  ],
  "bytecode": "0x60806040523480156200001157600080fd5b506040518060400160405280600c81526020017f45786368616e6765204e465400000000000000000000000000000000000000008152506040518060400160405280600581526020017f45584e4654000000000000000000000000000000000000000000000000000000815250816000908051906020019062000096929190620000b8565b508060019080519060200190620000af929190620000b8565b505050620001cd565b828054620000c69062000168565b90600052602060002090601f016020900481019282620000ea576000855562000136565b82601f106200010557805160ff191683800117855562000136565b8280016001018555821562000136579182015b828111156200013557825182559160200191906001019062000118565b5b50905062000145919062000149565b5090565b5b80821115620001645760008160009055506001016200014a565b5090565b600060028204905060018216806200018157607f821691505b602082108114156200019857620001976200019e565b5b50919050565b7f4e487b7100000000000000000000000000000000000000000000000000000000600052602260045260246000fd5b612c5680620001dd6000396000f3fe6080604052600436106100dd5760003560e01c80636af812821161007f578063a22cb46511610059578063a22cb465146102d7578063b88d4fde14610300578063c87b56dd14610329578063e985e9c514610366576100dd565b80636af812821461023f57806370a082311461026f57806395d89b41146102ac576100dd565b8063095ea7b3116100bb578063095ea7b31461018757806323b872dd146101b057806342842e0e146101d95780636352211e14610202576100dd565b806301ffc9a7146100e257806306fdde031461011f578063081812fc1461014a575b600080fd5b3480156100ee57600080fd5b5061010960048036038101906101049190611c9c565b6103a3565b6040516101169190612109565b60405180910390f35b34801561012b57600080fd5b50610134610485565b6040516101419190612124565b60405180910390f35b34801561015657600080fd5b50610171600480360381019061016c9190611d55565b610517565b60405161017e91906120a2565b60405180910390f35b34801561019357600080fd5b506101ae60048036038101906101a99190611c60565b61059c565b005b3480156101bc57600080fd5b506101d760048036038101906101d29190611b5a565b6106b4565b005b3480156101e557600080fd5b5061020060048036038101906101fb9190611b5a565b610714565b005b34801561020e57600080fd5b5061022960048036038101906102249190611d55565b610734565b60405161023691906120a2565b60405180910390f35b61025960048036038101906102549190611cee565b6107e6565b6040516102669190612346565b60405180910390f35b34801561027b57600080fd5b5061029660048036038101906102919190611af5565b61082b565b6040516102a39190612346565b60405180910390f35b3480156102b857600080fd5b506102c16108e3565b6040516102ce9190612124565b60405180910390f35b3480156102e357600080fd5b506102fe60048036038101906102f99190611c24565b610975565b005b34801561030c57600080fd5b5061032760048036038101906103229190611ba9565b61098b565b005b34801561033557600080fd5b50610350600480360381019061034b9190611d55565b6109ed565b60405161035d9190612124565b60405180910390f35b34801561037257600080fd5b5061038d60048036038101906103889190611b1e565b610b3f565b60405161039a9190612109565b60405180910390f35b60007f80ac58cd000000000000000000000000000000000000000000000000000000007bffffffffffffffffffffffffffffffffffffffffffffffffffffffff1916827bffffffffffffffffffffffffffffffffffffffffffffffffffffffff1916148061046e57507f5b5e139f000000000000000000000000000000000000000000000000000000007bffffffffffffffffffffffffffffffffffffffffffffffffffffffff1916827bffffffffffffffffffffffffffffffffffffffffffffffffffffffff1916145b8061047e575061047d82610bd3565b5b9050919050565b6060600080546104949061259c565b80601f01602080910402602001604051908101604052809291908181526020018280546104c09061259c565b801561050d5780601f106104e25761010080835404028352916020019161050d565b820191906000526020600020905b8154815290600101906020018083116104f057829003601f168201915b5050505050905090565b600061052282610c3d565b610561576040517f08c379a0000000000000000000000000000000000000000000000000000000008152600401610558906122c6565b60405180910390fd5b6004600083815260200190815260200160002060009054906101000a900473ffffffffffffffffffffffffffffffffffffffff169050919050565b60006105a782610734565b90508073ffffffffffffffffffffffffffffffffffffffff168373ffffffffffffffffffffffffffffffffffffffff161415610618576040517f08c379a000000000000000000000000000000000000000000000000000000000815260040161060f90612306565b60405180910390fd5b8073ffffffffffffffffffffffffffffffffffffffff16610637610ca9565b73ffffffffffffffffffffffffffffffffffffffff161480610666575061066581610660610ca9565b610b3f565b5b6106a5576040517f08c379a000000000000000000000000000000000000000000000000000000000815260040161069c90612206565b60405180910390fd5b6106af8383610cb1565b505050565b6106c56106bf610ca9565b82610d6a565b610704576040517f08c379a00000000000000000000000000000000000000000000000000000000081526004016106fb90612326565b60405180910390fd5b61070f838383610e48565b505050565b61072f8383836040518060200160405280600081525061098b565b505050565b6000806002600084815260200190815260200160002060009054906101000a900473ffffffffffffffffffffffffffffffffffffffff169050600073ffffffffffffffffffffffffffffffffffffffff168173ffffffffffffffffffffffffffffffffffffffff1614156107dd576040517f08c379a00000000000000000000000000000000000000000000000000000000081526004016107d490612246565b60405180910390fd5b80915050919050565b60006107f260076110af565b60006107fe60076110c5565b905061080a83826110d3565b61081481866112ad565b61082083856001611321565b809150509392505050565b60008073ffffffffffffffffffffffffffffffffffffffff168273ffffffffffffffffffffffffffffffffffffffff16141561089c576040517f08c379a000000000000000000000000000000000000000000000000000000000815260040161089390612226565b60405180910390fd5b600360008373ffffffffffffffffffffffffffffffffffffffff1673ffffffffffffffffffffffffffffffffffffffff168152602001908152602001600020549050919050565b6060600180546108f29061259c565b80601f016020809104026020016040519081016040528092919081815260200182805461091e9061259c565b801561096b5780601f106109405761010080835404028352916020019161096b565b820191906000526020600020905b81548152906001019060200180831161094e57829003601f168201915b5050505050905090565b610987610980610ca9565b8383611321565b5050565b61099c610996610ca9565b83610d6a565b6109db576040517f08c379a00000000000000000000000000000000000000000000000000000000081526004016109d290612326565b60405180910390fd5b6109e78484848461148e565b50505050565b60606109f882610c3d565b610a37576040517f08c379a0000000000000000000000000000000000000000000000000000000008152600401610a2e906122a6565b60405180910390fd5b6000600660008481526020019081526020016000208054610a579061259c565b80601f0160208091040260200160405190810160405280929190818152602001828054610a839061259c565b8015610ad05780601f10610aa557610100808354040283529160200191610ad0565b820191906000526020600020905b815481529060010190602001808311610ab357829003601f168201915b505050505090506000610ae16114ea565b9050600081511415610af7578192505050610b3a565b600082511115610b2c578082604051602001610b1492919061207e565b60405160208183030381529060405292505050610b3a565b610b3584611501565b925050505b919050565b6000600560008473ffffffffffffffffffffffffffffffffffffffff1673ffffffffffffffffffffffffffffffffffffffff16815260200190815260200160002060008373ffffffffffffffffffffffffffffffffffffffff1673ffffffffffffffffffffffffffffffffffffffff16815260200190815260200160002060009054906101000a900460ff16905092915050565b60007f01ffc9a7000000000000000000000000000000000000000000000000000000007bffffffffffffffffffffffffffffffffffffffffffffffffffffffff1916827bffffffffffffffffffffffffffffffffffffffffffffffffffffffff1916149050919050565b60008073ffffffffffffffffffffffffffffffffffffffff166002600084815260200190815260200160002060009054906101000a900473ffffffffffffffffffffffffffffffffffffffff1673ffffffffffffffffffffffffffffffffffffffff1614159050919050565b600033905090565b816004600083815260200190815260200160002060006101000a81548173ffffffffffffffffffffffffffffffffffffffff021916908373ffffffffffffffffffffffffffffffffffffffff160217905550808273ffffffffffffffffffffffffffffffffffffffff16610d2483610734565b73ffffffffffffffffffffffffffffffffffffffff167f8c5be1e5ebec7d5bd14f71427d1e84f3dd0314c0f7b2291e5b200ac8c7c3b92560405160405180910390a45050565b6000610d7582610c3d565b610db4576040517f08c379a0000000000000000000000000000000000000000000000000000000008152600401610dab906121e6565b60405180910390fd5b6000610dbf83610734565b90508073ffffffffffffffffffffffffffffffffffffffff168473ffffffffffffffffffffffffffffffffffffffff161480610e2e57508373ffffffffffffffffffffffffffffffffffffffff16610e1684610517565b73ffffffffffffffffffffffffffffffffffffffff16145b80610e3f5750610e3e8185610b3f565b5b91505092915050565b8273ffffffffffffffffffffffffffffffffffffffff16610e6882610734565b73ffffffffffffffffffffffffffffffffffffffff1614610ebe576040517f08c379a0000000000000000000000000000000000000000000000000000000008152600401610eb590612166565b60405180910390fd5b600073ffffffffffffffffffffffffffffffffffffffff168273ffffffffffffffffffffffffffffffffffffffff161415610f2e576040517f08c379a0000000000000000000000000000000000000000000000000000000008152600401610f25906121a6565b60405180910390fd5b610f398383836115a8565b610f44600082610cb1565b6001600360008573ffffffffffffffffffffffffffffffffffffffff1673ffffffffffffffffffffffffffffffffffffffff1681526020019081526020016000206000828254610f9491906124b2565b925050819055506001600360008473ffffffffffffffffffffffffffffffffffffffff1673ffffffffffffffffffffffffffffffffffffffff1681526020019081526020016000206000828254610feb919061242b565b92505081905550816002600083815260200190815260200160002060006101000a81548173ffffffffffffffffffffffffffffffffffffffff021916908373ffffffffffffffffffffffffffffffffffffffff160217905550808273ffffffffffffffffffffffffffffffffffffffff168473ffffffffffffffffffffffffffffffffffffffff167fddf252ad1be2c89b69c2b068fc378daa952ba7f163c4a11628f55a4df523b3ef60405160405180910390a46110aa8383836115ad565b505050565b6001816000016000828254019250508190555050565b600081600001549050919050565b600073ffffffffffffffffffffffffffffffffffffffff168273ffffffffffffffffffffffffffffffffffffffff161415611143576040517f08c379a000000000000000000000000000000000000000000000000000000000815260040161113a90612286565b60405180910390fd5b61114c81610c3d565b1561118c576040517f08c379a000000000000000000000000000000000000000000000000000000000815260040161118390612186565b60405180910390fd5b611198600083836115a8565b6001600360008473ffffffffffffffffffffffffffffffffffffffff1673ffffffffffffffffffffffffffffffffffffffff16815260200190815260200160002060008282546111e8919061242b565b92505081905550816002600083815260200190815260200160002060006101000a81548173ffffffffffffffffffffffffffffffffffffffff021916908373ffffffffffffffffffffffffffffffffffffffff160217905550808273ffffffffffffffffffffffffffffffffffffffff16600073ffffffffffffffffffffffffffffffffffffffff167fddf252ad1be2c89b69c2b068fc378daa952ba7f163c4a11628f55a4df523b3ef60405160405180910390a46112a9600083836115ad565b5050565b6112b682610c3d565b6112f5576040517f08c379a00000000000000000000000000000000000000000000000000000000081526004016112ec90612266565b60405180910390fd5b8060066000848152602001908152602001600020908051906020019061131c929190611919565b505050565b8173ffffffffffffffffffffffffffffffffffffffff168373ffffffffffffffffffffffffffffffffffffffff161415611390576040517f08c379a0000000000000000000000000000000000000000000000000000000008152600401611387906121c6565b60405180910390fd5b80600560008573ffffffffffffffffffffffffffffffffffffffff1673ffffffffffffffffffffffffffffffffffffffff16815260200190815260200160002060008473ffffffffffffffffffffffffffffffffffffffff1673ffffffffffffffffffffffffffffffffffffffff16815260200190815260200160002060006101000a81548160ff0219169083151502179055508173ffffffffffffffffffffffffffffffffffffffff168373ffffffffffffffffffffffffffffffffffffffff167f17307eab39ab6107e8899845ad3d59bd9653f200f220920489ca2b5937696c31836040516114819190612109565b60405180910390a3505050565b611499848484610e48565b6114a5848484846115b2565b6114e4576040517f08c379a00000000000000000000000000000000000000000000000000000000081526004016114db90612146565b60405180910390fd5b50505050565b606060405180602001604052806000815250905090565b606061150c82610c3d565b61154b576040517f08c379a0000000000000000000000000000000000000000000000000000000008152600401611542906122e6565b60405180910390fd5b60006115556114ea565b9050600081511161157557604051806020016040528060008152506115a0565b8061157f84611749565b60405160200161159092919061207e565b6040516020818303038152906040525b915050919050565b505050565b505050565b60006115d38473ffffffffffffffffffffffffffffffffffffffff166118f6565b1561173c578373ffffffffffffffffffffffffffffffffffffffff1663150b7a026115fc610ca9565b8786866040518563ffffffff1660e01b815260040161161e94939291906120bd565b602060405180830381600087803b15801561163857600080fd5b505af192505050801561166957506040513d601f19601f820116820180604052508101906116669190611cc5565b60015b6116ec573d8060008114611699576040519150601f19603f3d011682016040523d82523d6000602084013e61169e565b606091505b506000815114156116e4576040517f08c379a00000000000000000000000000000000000000000000000000000000081526004016116db90612146565b60405180910390fd5b805181602001fd5b63150b7a0260e01b7bffffffffffffffffffffffffffffffffffffffffffffffffffffffff1916817bffffffffffffffffffffffffffffffffffffffffffffffffffffffff191614915050611741565b600190505b949350505050565b60606000821415611791576040518060400160405280600181526020017f300000000000000000000000000000000000000000000000000000000000000081525090506118f1565b600082905060005b600082146117c35780806117ac906125ff565b915050600a826117bc9190612481565b9150611799565b60008167ffffffffffffffff811115611805577f4e487b7100000000000000000000000000000000000000000000000000000000600052604160045260246000fd5b6040519080825280601f01601f1916602001820160405280156118375781602001600182028036833780820191505090505b5090505b600085146118ea5760018261185091906124b2565b9150600a8561185f9190612648565b603061186b919061242b565b60f81b8183815181106118a7577f4e487b7100000000000000000000000000000000000000000000000000000000600052603260045260246000fd5b60200101907effffffffffffffffffffffffffffffffffffffffffffffffffffffffffffff1916908160001a905350600a856118e39190612481565b945061183b565b8093505050505b919050565b6000808273ffffffffffffffffffffffffffffffffffffffff163b119050919050565b8280546119259061259c565b90600052602060002090601f016020900481019282611947576000855561198e565b82601f1061196057805160ff191683800117855561198e565b8280016001018555821561198e579182015b8281111561198d578251825591602001919060010190611972565b5b50905061199b919061199f565b5090565b5b808211156119b85760008160009055506001016119a0565b5090565b60006119cf6119ca84612386565b612361565b9050828152602081018484840111156119e757600080fd5b6119f284828561255a565b509392505050565b6000611a0d611a08846123b7565b612361565b905082815260208101848484011115611a2557600080fd5b611a3084828561255a565b509392505050565b600081359050611a4781612bc4565b92915050565b600081359050611a5c81612bdb565b92915050565b600081359050611a7181612bf2565b92915050565b600081519050611a8681612bf2565b92915050565b600082601f830112611a9d57600080fd5b8135611aad8482602086016119bc565b91505092915050565b600082601f830112611ac757600080fd5b8135611ad78482602086016119fa565b91505092915050565b600081359050611aef81612c09565b92915050565b600060208284031215611b0757600080fd5b6000611b1584828501611a38565b91505092915050565b60008060408385031215611b3157600080fd5b6000611b3f85828601611a38565b9250506020611b5085828601611a38565b9150509250929050565b600080600060608486031215611b6f57600080fd5b6000611b7d86828701611a38565b9350506020611b8e86828701611a38565b9250506040611b9f86828701611ae0565b9150509250925092565b60008060008060808587031215611bbf57600080fd5b6000611bcd87828801611a38565b9450506020611bde87828801611a38565b9350506040611bef87828801611ae0565b925050606085013567ffffffffffffffff811115611c0c57600080fd5b611c1887828801611a8c565b91505092959194509250565b60008060408385031215611c3757600080fd5b6000611c4585828601611a38565b9250506020611c5685828601611a4d565b9150509250929050565b60008060408385031215611c7357600080fd5b6000611c8185828601611a38565b9250506020611c9285828601611ae0565b9150509250929050565b600060208284031215611cae57600080fd5b6000611cbc84828501611a62565b91505092915050565b600060208284031215611cd757600080fd5b6000611ce584828501611a77565b91505092915050565b600080600060608486031215611d0357600080fd5b600084013567ffffffffffffffff811115611d1d57600080fd5b611d2986828701611ab6565b9350506020611d3a86828701611a38565b9250506040611d4b86828701611a38565b9150509250925092565b600060208284031215611d6757600080fd5b6000611d7584828501611ae0565b91505092915050565b611d87816124e6565b82525050565b611d96816124f8565b82525050565b6000611da7826123e8565b611db181856123fe565b9350611dc1818560208601612569565b611dca81612735565b840191505092915050565b6000611de0826123f3565b611dea818561240f565b9350611dfa818560208601612569565b611e0381612735565b840191505092915050565b6000611e19826123f3565b611e238185612420565b9350611e33818560208601612569565b80840191505092915050565b6000611e4c60328361240f565b9150611e5782612746565b604082019050919050565b6000611e6f60258361240f565b9150611e7a82612795565b604082019050919050565b6000611e92601c8361240f565b9150611e9d826127e4565b602082019050919050565b6000611eb560248361240f565b9150611ec08261280d565b604082019050919050565b6000611ed860198361240f565b9150611ee38261285c565b602082019050919050565b6000611efb602c8361240f565b9150611f0682612885565b604082019050919050565b6000611f1e60388361240f565b9150611f29826128d4565b604082019050919050565b6000611f41602a8361240f565b9150611f4c82612923565b604082019050919050565b6000611f6460298361240f565b9150611f6f82612972565b604082019050919050565b6000611f87602e8361240f565b9150611f92826129c1565b604082019050919050565b6000611faa60208361240f565b9150611fb582612a10565b602082019050919050565b6000611fcd60318361240f565b9150611fd882612a39565b604082019050919050565b6000611ff0602c8361240f565b9150611ffb82612a88565b604082019050919050565b6000612013602f8361240f565b915061201e82612ad7565b604082019050919050565b600061203660218361240f565b915061204182612b26565b604082019050919050565b600061205960318361240f565b915061206482612b75565b604082019050919050565b61207881612550565b82525050565b600061208a8285611e0e565b91506120968284611e0e565b91508190509392505050565b60006020820190506120b76000830184611d7e565b92915050565b60006080820190506120d26000830187611d7e565b6120df6020830186611d7e565b6120ec604083018561206f565b81810360608301526120fe8184611d9c565b905095945050505050565b600060208201905061211e6000830184611d8d565b92915050565b6000602082019050818103600083015261213e8184611dd5565b905092915050565b6000602082019050818103600083015261215f81611e3f565b9050919050565b6000602082019050818103600083015261217f81611e62565b9050919050565b6000602082019050818103600083015261219f81611e85565b9050919050565b600060208201905081810360008301526121bf81611ea8565b9050919050565b600060208201905081810360008301526121df81611ecb565b9050919050565b600060208201905081810360008301526121ff81611eee565b9050919050565b6000602082019050818103600083015261221f81611f11565b9050919050565b6000602082019050818103600083015261223f81611f34565b9050919050565b6000602082019050818103600083015261225f81611f57565b9050919050565b6000602082019050818103600083015261227f81611f7a565b9050919050565b6000602082019050818103600083015261229f81611f9d565b9050919050565b600060208201905081810360008301526122bf81611fc0565b9050919050565b600060208201905081810360008301526122df81611fe3565b9050919050565b600060208201905081810360008301526122ff81612006565b9050919050565b6000602082019050818103600083015261231f81612029565b9050919050565b6000602082019050818103600083015261233f8161204c565b9050919050565b600060208201905061235b600083018461206f565b92915050565b600061236b61237c565b905061237782826125ce565b919050565b6000604051905090565b600067ffffffffffffffff8211156123a1576123a0612706565b5b6123aa82612735565b9050602081019050919050565b600067ffffffffffffffff8211156123d2576123d1612706565b5b6123db82612735565b9050602081019050919050565b600081519050919050565b600081519050919050565b600082825260208201905092915050565b600082825260208201905092915050565b600081905092915050565b600061243682612550565b915061244183612550565b9250827fffffffffffffffffffffffffffffffffffffffffffffffffffffffffffffffff0382111561247657612475612679565b5b828201905092915050565b600061248c82612550565b915061249783612550565b9250826124a7576124a66126a8565b5b828204905092915050565b60006124bd82612550565b91506124c883612550565b9250828210156124db576124da612679565b5b828203905092915050565b60006124f182612530565b9050919050565b60008115159050919050565b60007fffffffff0000000000000000000000000000000000000000000000000000000082169050919050565b600073ffffffffffffffffffffffffffffffffffffffff82169050919050565b6000819050919050565b82818337600083830152505050565b60005b8381101561258757808201518184015260208101905061256c565b83811115612596576000848401525b50505050565b600060028204905060018216806125b457607f821691505b602082108114156125c8576125c76126d7565b5b50919050565b6125d782612735565b810181811067ffffffffffffffff821117156125f6576125f5612706565b5b80604052505050565b600061260a82612550565b91507fffffffffffffffffffffffffffffffffffffffffffffffffffffffffffffffff82141561263d5761263c612679565b5b600182019050919050565b600061265382612550565b915061265e83612550565b92508261266e5761266d6126a8565b5b828206905092915050565b7f4e487b7100000000000000000000000000000000000000000000000000000000600052601160045260246000fd5b7f4e487b7100000000000000000000000000000000000000000000000000000000600052601260045260246000fd5b7f4e487b7100000000000000000000000000000000000000000000000000000000600052602260045260246000fd5b7f4e487b7100000000000000000000000000000000000000000000000000000000600052604160045260246000fd5b6000601f19601f8301169050919050565b7f4552433732313a207472616e7366657220746f206e6f6e20455243373231526560008201527f63656976657220696d706c656d656e7465720000000000000000000000000000602082015250565b7f4552433732313a207472616e736665722066726f6d20696e636f72726563742060008201527f6f776e6572000000000000000000000000000000000000000000000000000000602082015250565b7f4552433732313a20746f6b656e20616c7265616479206d696e74656400000000600082015250565b7f4552433732313a207472616e7366657220746f20746865207a65726f2061646460008201527f7265737300000000000000000000000000000000000000000000000000000000602082015250565b7f4552433732313a20617070726f766520746f2063616c6c657200000000000000600082015250565b7f4552433732313a206f70657261746f7220717565727920666f72206e6f6e657860008201527f697374656e7420746f6b656e0000000000000000000000000000000000000000602082015250565b7f4552433732313a20617070726f76652063616c6c6572206973206e6f74206f7760008201527f6e6572206e6f7220617070726f76656420666f7220616c6c0000000000000000602082015250565b7f4552433732313a2062616c616e636520717565727920666f7220746865207a6560008201527f726f206164647265737300000000000000000000000000000000000000000000602082015250565b7f4552433732313a206f776e657220717565727920666f72206e6f6e657869737460008201527f656e7420746f6b656e0000000000000000000000000000000000000000000000602082015250565b7f45524337323155524953746f726167653a2055524920736574206f66206e6f6e60008201527f6578697374656e7420746f6b656e000000000000000000000000000000000000602082015250565b7f4552433732313a206d696e7420746f20746865207a65726f2061646472657373600082015250565b7f45524337323155524953746f726167653a2055524920717565727920666f722060008201527f6e6f6e6578697374656e7420746f6b656e000000000000000000000000000000602082015250565b7f4552433732313a20617070726f76656420717565727920666f72206e6f6e657860008201527f697374656e7420746f6b656e0000000000000000000000000000000000000000602082015250565b7f4552433732314d657461646174613a2055524920717565727920666f72206e6f60008201527f6e6578697374656e7420746f6b656e0000000000000000000000000000000000602082015250565b7f4552433732313a20617070726f76616c20746f2063757272656e74206f776e6560008201527f7200000000000000000000000000000000000000000000000000000000000000602082015250565b7f4552433732313a207472616e736665722063616c6c6572206973206e6f74206f60008201527f776e6572206e6f7220617070726f766564000000000000000000000000000000602082015250565b612bcd816124e6565b8114612bd857600080fd5b50565b612be4816124f8565b8114612bef57600080fd5b50565b612bfb81612504565b8114612c0657600080fd5b50565b612c1281612550565b8114612c1d57600080fd5b5056fea264697066735822122002a1b94838080d09334a5ab673eba65ae28cc5d3fa5ecae6f6a9061bb7954afc64736f6c63430008040033",
  "linkReferences": {},
  "deployedLinkReferences": {}
}