{
  "_format": "hh-sol-artifact-1",
  "contractName": "NFT",
  "sourceName": "contracts/NFT.sol",
  "abi": [
    {
      "inputs": [],
      "stateMutability": "nonpayable",
      "type": "constructor"
    },
    {
      "anonymous": false,
      "inputs": [
        {
          "indexed": true,
          "internalType": "address",
          "name": "owner",
          "type": "address"
        },
        {
          "indexed": true,
          "internalType": "address",
          "name": "approved",
          "type": "address"
        },
        {
          "indexed": true,
          "internalType": "uint256",
          "name": "tokenId",
          "type": "uint256"
        }
      ],
      "name": "Approval",
      "type": "event"
    },
    {
      "anonymous": false,
      "inputs": [
        {
          "indexed": true,
          "internalType": "address",
          "name": "owner",
          "type": "address"
        },
        {
          "indexed": true,
          "internalType": "address",
          "name": "operator",
          "type": "address"
        },
        {
          "indexed": false,
          "internalType": "bool",
          "name": "approved",
          "type": "bool"
        }
      ],
      "name": "ApprovalForAll",
      "type": "event"
    },
    {
      "anonymous": false,
      "inputs": [
        {
          "indexed": true,
          "internalType": "address",
          "name": "from",
          "type": "address"
        },
        {
          "indexed": true,
          "internalType": "address",
          "name": "to",
          "type": "address"
        },
        {
          "indexed": true,
          "internalType": "uint256",
          "name": "tokenId",
          "type": "uint256"
        }
      ],
      "name": "Transfer",
      "type": "event"
    },
    {
      "inputs": [
        {
          "internalType": "address",
          "name": "to",
          "type": "address"
        },
        {
          "internalType": "uint256",
          "name": "tokenId",
          "type": "uint256"
        }
      ],
      "name": "approve",
      "outputs": [],
      "stateMutability": "nonpayable",
      "type": "function"
    },
    {
      "inputs": [
        {
          "internalType": "address",
          "name": "owner",
          "type": "address"
        }
      ],
      "name": "balanceOf",
      "outputs": [
        {
          "internalType": "uint256",
          "name": "",
          "type": "uint256"
        }
      ],
      "stateMutability": "view",
      "type": "function"
    },
    {
      "inputs": [
        {
          "internalType": "uint256",
          "name": "tokenId",
          "type": "uint256"
        }
      ],
      "name": "getApproved",
      "outputs": [
        {
          "internalType": "address",
          "name": "",
          "type": "address"
        }
      ],
      "stateMutability": "view",
      "type": "function"
    },
    {
      "inputs": [
        {
          "internalType": "address",
          "name": "owner",
          "type": "address"
        },
        {
          "internalType": "address",
          "name": "operator",
          "type": "address"
        }
      ],
      "name": "isApprovedForAll",
      "outputs": [
        {
          "internalType": "bool",
          "name": "",
          "type": "bool"
        }
      ],
      "stateMutability": "view",
      "type": "function"
    },
    {
      "inputs": [],
      "name": "name",
      "outputs": [
        {
          "internalType": "string",
          "name": "",
          "type": "string"
        }
      ],
      "stateMutability": "view",
      "type": "function"
    },
    {
      "inputs": [
        {
          "internalType": "uint256",
          "name": "tokenId",
          "type": "uint256"
        }
      ],
      "name": "ownerOf",
      "outputs": [
        {
          "internalType": "address",
          "name": "",
          "type": "address"
        }
      ],
      "stateMutability": "view",
      "type": "function"
    },
    {
      "inputs": [
        {
          "internalType": "string",
          "name": "uri",
          "type": "string"
        },
        {
          "internalType": "address",
          "name": "marketPlaceAddress",
          "type": "address"
        },
        {
          "internalType": "address",
          "name": "creator",
          "type": "address"
        }
      ],
      "name": "safeMint",
      "outputs": [
        {
          "internalType": "uint256",
          "name": "",
          "type": "uint256"
        }
      ],
      "stateMutability": "payable",
      "type": "function"
    },
    {
      "inputs": [
        {
          "internalType": "address",
          "name": "from",
          "type": "address"
        },
        {
          "internalType": "address",
          "name": "to",
          "type": "address"
        },
        {
          "internalType": "uint256",
          "name": "tokenId",
          "type": "uint256"
        }
      ],
      "name": "safeTransferFrom",
      "outputs": [],
      "stateMutability": "nonpayable",
      "type": "function"
    },
    {
      "inputs": [
        {
          "internalType": "address",
          "name": "from",
          "type": "address"
        },
        {
          "internalType": "address",
          "name": "to",
          "type": "address"
        },
        {
          "internalType": "uint256",
          "name": "tokenId",
          "type": "uint256"
        },
        {
          "internalType": "bytes",
          "name": "_data",
          "type": "bytes"
        }
      ],
      "name": "safeTransferFrom",
      "outputs": [],
      "stateMutability": "nonpayable",
      "type": "function"
    },
    {
      "inputs": [
        {
          "internalType": "address",
          "name": "operator",
          "type": "address"
        },
        {
          "internalType": "bool",
          "name": "approved",
          "type": "bool"
        }
      ],
      "name": "setApprovalForAll",
      "outputs": [],
      "stateMutability": "nonpayable",
      "type": "function"
    },
    {
      "inputs": [
        {
          "internalType": "bytes4",
          "name": "interfaceId",
          "type": "bytes4"
        }
      ],
      "name": "supportsInterface",
      "outputs": [
        {
          "internalType": "bool",
          "name": "",
          "type": "bool"
        }
      ],
      "stateMutability": "view",
      "type": "function"
    },
    {
      "inputs": [],
      "name": "symbol",
      "outputs": [
        {
          "internalType": "string",
          "name": "",
          "type": "string"
        }
      ],
      "stateMutability": "view",
      "type": "function"
    },
    {
      "inputs": [
        {
          "internalType": "uint256",
          "name": "tokenId",
          "type": "uint256"
        }
      ],
      "name": "tokenURI",
      "outputs": [
        {
          "internalType": "string",
          "name": "",
          "type": "string"
        }
      ],
      "stateMutability": "view",
      "type": "function"
    },
    {
      "inputs": [
        {
          "internalType": "address",
          "name": "from",
          "type": "address"
        },
        {
          "internalType": "address",
          "name": "to",
          "type": "address"
        },
        {
          "internalType": "uint256",
          "name": "tokenId",
          "type": "uint256"
        }
      ],
      "name": "transferFrom",
      "outputs": [],
      "stateMutability": "nonpayable",
      "type": "function"
    }
  ],
  "bytecode": "0x60806040523480156200001157600080fd5b50604080518082018252600c81526b115e18da185b99d94813919560a21b602080830191825283518085019094526005845264115613919560da1b908401528151919291620000639160009162000082565b5080516200007990600190602084019062000082565b50505062000165565b828054620000909062000128565b90600052602060002090601f016020900481019282620000b45760008555620000ff565b82601f10620000cf57805160ff1916838001178555620000ff565b82800160010185558215620000ff579182015b82811115620000ff578251825591602001919060010190620000e2565b506200010d92915062000111565b5090565b5b808211156200010d576000815560010162000112565b600181811c908216806200013d57607f821691505b602082108114156200015f57634e487b7160e01b600052602260045260246000fd5b50919050565b61179e80620001756000396000f3fe6080604052600436106100dd5760003560e01c80636af812821161007f578063a22cb46511610059578063a22cb46514610249578063b88d4fde14610269578063c87b56dd14610289578063e985e9c5146102a957600080fd5b80636af81282146101f357806370a082311461021457806395d89b411461023457600080fd5b8063095ea7b3116100bb578063095ea7b31461017157806323b872dd1461019357806342842e0e146101b35780636352211e146101d357600080fd5b806301ffc9a7146100e257806306fdde0314610117578063081812fc14610139575b600080fd5b3480156100ee57600080fd5b506101026100fd366004611427565b6102f2565b60405190151581526020015b60405180910390f35b34801561012357600080fd5b5061012c610344565b60405161010e919061157e565b34801561014557600080fd5b506101596101543660046114ce565b6103d6565b6040516001600160a01b03909116815260200161010e565b34801561017d57600080fd5b5061019161018c3660046113fe565b610463565b005b34801561019f57600080fd5b506101916101ae366004611310565b610579565b3480156101bf57600080fd5b506101916101ce366004611310565b6105aa565b3480156101df57600080fd5b506101596101ee3660046114ce565b6105c5565b61020661020136600461145f565b61063c565b60405190815260200161010e565b34801561022057600080fd5b5061020661022f3660046112c4565b610681565b34801561024057600080fd5b5061012c610708565b34801561025557600080fd5b506101916102643660046113c4565b610717565b34801561027557600080fd5b5061019161028436600461134b565b610726565b34801561029557600080fd5b5061012c6102a43660046114ce565b61075e565b3480156102b557600080fd5b506101026102c43660046112de565b6001600160a01b03918216600090815260056020908152604080832093909416825291909152205460ff1690565b60006001600160e01b031982166380ac58cd60e01b148061032357506001600160e01b03198216635b5e139f60e01b145b8061033e57506301ffc9a760e01b6001600160e01b03198316145b92915050565b606060008054610353906116a3565b80601f016020809104026020016040519081016040528092919081815260200182805461037f906116a3565b80156103cc5780601f106103a1576101008083540402835291602001916103cc565b820191906000526020600020905b8154815290600101906020018083116103af57829003601f168201915b5050505050905090565b60006103e1826108cd565b6104475760405162461bcd60e51b815260206004820152602c60248201527f4552433732313a20617070726f76656420717565727920666f72206e6f6e657860448201526b34b9ba32b73a103a37b5b2b760a11b60648201526084015b60405180910390fd5b506000908152600460205260409020546001600160a01b031690565b600061046e826105c5565b9050806001600160a01b0316836001600160a01b031614156104dc5760405162461bcd60e51b815260206004820152602160248201527f4552433732313a20617070726f76616c20746f2063757272656e74206f776e656044820152603960f91b606482015260840161043e565b336001600160a01b03821614806104f857506104f881336102c4565b61056a5760405162461bcd60e51b815260206004820152603860248201527f4552433732313a20617070726f76652063616c6c6572206973206e6f74206f7760448201527f6e6572206e6f7220617070726f76656420666f7220616c6c0000000000000000606482015260840161043e565b61057483836108ea565b505050565b6105833382610958565b61059f5760405162461bcd60e51b815260040161043e906115e3565b610574838383610a3e565b61057483838360405180602001604052806000815250610726565b6000818152600260205260408120546001600160a01b03168061033e5760405162461bcd60e51b815260206004820152602960248201527f4552433732313a206f776e657220717565727920666f72206e6f6e657869737460448201526832b73a103a37b5b2b760b91b606482015260840161043e565b600061064c600780546001019055565b600061065760075490565b90506106638382610bda565b61066d8186610d0d565b61067983856001610d98565b949350505050565b60006001600160a01b0382166106ec5760405162461bcd60e51b815260206004820152602a60248201527f4552433732313a2062616c616e636520717565727920666f7220746865207a65604482015269726f206164647265737360b01b606482015260840161043e565b506001600160a01b031660009081526003602052604090205490565b606060018054610353906116a3565b610722338383610d98565b5050565b6107303383610958565b61074c5760405162461bcd60e51b815260040161043e906115e3565b61075884848484610e67565b50505050565b6060610769826108cd565b6107cf5760405162461bcd60e51b815260206004820152603160248201527f45524337323155524953746f726167653a2055524920717565727920666f72206044820152703737b732bc34b9ba32b73a103a37b5b2b760791b606482015260840161043e565b600082815260066020526040812080546107e8906116a3565b80601f0160208091040260200160405190810160405280929190818152602001828054610814906116a3565b80156108615780601f1061083657610100808354040283529160200191610861565b820191906000526020600020905b81548152906001019060200180831161084457829003601f168201915b50505050509050600061087f60408051602081019091526000815290565b9050805160001415610892575092915050565b8151156108c45780826040516020016108ac929190611512565b60405160208183030381529060405292505050919050565b61067984610e9a565b6000908152600260205260409020546001600160a01b0316151590565b600081815260046020526040902080546001600160a01b0319166001600160a01b038416908117909155819061091f826105c5565b6001600160a01b03167f8c5be1e5ebec7d5bd14f71427d1e84f3dd0314c0f7b2291e5b200ac8c7c3b92560405160405180910390a45050565b6000610963826108cd565b6109c45760405162461bcd60e51b815260206004820152602c60248201527f4552433732313a206f70657261746f7220717565727920666f72206e6f6e657860448201526b34b9ba32b73a103a37b5b2b760a11b606482015260840161043e565b60006109cf836105c5565b9050806001600160a01b0316846001600160a01b03161480610a0a5750836001600160a01b03166109ff846103d6565b6001600160a01b0316145b8061067957506001600160a01b0380821660009081526005602090815260408083209388168352929052205460ff16610679565b826001600160a01b0316610a51826105c5565b6001600160a01b031614610ab55760405162461bcd60e51b815260206004820152602560248201527f4552433732313a207472616e736665722066726f6d20696e636f72726563742060448201526437bbb732b960d91b606482015260840161043e565b6001600160a01b038216610b175760405162461bcd60e51b8152602060048201526024808201527f4552433732313a207472616e7366657220746f20746865207a65726f206164646044820152637265737360e01b606482015260840161043e565b610b226000826108ea565b6001600160a01b0383166000908152600360205260408120805460019290610b4b908490611660565b90915550506001600160a01b0382166000908152600360205260408120805460019290610b79908490611634565b909155505060008181526002602052604080822080546001600160a01b0319166001600160a01b0386811691821790925591518493918716917fddf252ad1be2c89b69c2b068fc378daa952ba7f163c4a11628f55a4df523b3ef91a4505050565b6001600160a01b038216610c305760405162461bcd60e51b815260206004820181905260248201527f4552433732313a206d696e7420746f20746865207a65726f2061646472657373604482015260640161043e565b610c39816108cd565b15610c865760405162461bcd60e51b815260206004820152601c60248201527f4552433732313a20746f6b656e20616c7265616479206d696e74656400000000604482015260640161043e565b6001600160a01b0382166000908152600360205260408120805460019290610caf908490611634565b909155505060008181526002602052604080822080546001600160a01b0319166001600160a01b03861690811790915590518392907fddf252ad1be2c89b69c2b068fc378daa952ba7f163c4a11628f55a4df523b3ef908290a45050565b610d16826108cd565b610d795760405162461bcd60e51b815260206004820152602e60248201527f45524337323155524953746f726167653a2055524920736574206f66206e6f6e60448201526d32bc34b9ba32b73a103a37b5b2b760911b606482015260840161043e565b6000828152600660209081526040909120825161057492840190611199565b816001600160a01b0316836001600160a01b03161415610dfa5760405162461bcd60e51b815260206004820152601960248201527f4552433732313a20617070726f766520746f2063616c6c657200000000000000604482015260640161043e565b6001600160a01b03838116600081815260056020908152604080832094871680845294825291829020805460ff191686151590811790915591519182527f17307eab39ab6107e8899845ad3d59bd9653f200f220920489ca2b5937696c31910160405180910390a3505050565b610e72848484610a3e565b610e7e84848484610f72565b6107585760405162461bcd60e51b815260040161043e90611591565b6060610ea5826108cd565b610f095760405162461bcd60e51b815260206004820152602f60248201527f4552433732314d657461646174613a2055524920717565727920666f72206e6f60448201526e3732bc34b9ba32b73a103a37b5b2b760891b606482015260840161043e565b6000610f2060408051602081019091526000815290565b90506000815111610f405760405180602001604052806000815250610f6b565b80610f4a8461107f565b604051602001610f5b929190611512565b6040516020818303038152906040525b9392505050565b60006001600160a01b0384163b1561107457604051630a85bd0160e11b81526001600160a01b0385169063150b7a0290610fb6903390899088908890600401611541565b602060405180830381600087803b158015610fd057600080fd5b505af1925050508015611000575060408051601f3d908101601f19168201909252610ffd91810190611443565b60015b61105a573d80801561102e576040519150601f19603f3d011682016040523d82523d6000602084013e611033565b606091505b5080516110525760405162461bcd60e51b815260040161043e90611591565b805181602001fd5b6001600160e01b031916630a85bd0160e11b149050610679565b506001949350505050565b6060816110a35750506040805180820190915260018152600360fc1b602082015290565b8160005b81156110cd57806110b7816116de565b91506110c69050600a8361164c565b91506110a7565b60008167ffffffffffffffff8111156110f657634e487b7160e01b600052604160045260246000fd5b6040519080825280601f01601f191660200182016040528015611120576020820181803683370190505b5090505b841561067957611135600183611660565b9150611142600a866116f9565b61114d906030611634565b60f81b81838151811061117057634e487b7160e01b600052603260045260246000fd5b60200101906001600160f81b031916908160001a905350611192600a8661164c565b9450611124565b8280546111a5906116a3565b90600052602060002090601f0160209004810192826111c7576000855561120d565b82601f106111e057805160ff191683800117855561120d565b8280016001018555821561120d579182015b8281111561120d5782518255916020019190600101906111f2565b5061121992915061121d565b5090565b5b80821115611219576000815560010161121e565b600067ffffffffffffffff8084111561124d5761124d611739565b604051601f8501601f19908116603f0116810190828211818310171561127557611275611739565b8160405280935085815286868601111561128e57600080fd5b858560208301376000602087830101525050509392505050565b80356001600160a01b03811681146112bf57600080fd5b919050565b6000602082840312156112d5578081fd5b610f6b826112a8565b600080604083850312156112f0578081fd5b6112f9836112a8565b9150611307602084016112a8565b90509250929050565b600080600060608486031215611324578081fd5b61132d846112a8565b925061133b602085016112a8565b9150604084013590509250925092565b60008060008060808587031215611360578081fd5b611369856112a8565b9350611377602086016112a8565b925060408501359150606085013567ffffffffffffffff811115611399578182fd5b8501601f810187136113a9578182fd5b6113b887823560208401611232565b91505092959194509250565b600080604083850312156113d6578182fd5b6113df836112a8565b9150602083013580151581146113f3578182fd5b809150509250929050565b60008060408385031215611410578182fd5b611419836112a8565b946020939093013593505050565b600060208284031215611438578081fd5b8135610f6b8161174f565b600060208284031215611454578081fd5b8151610f6b8161174f565b600080600060608486031215611473578283fd5b833567ffffffffffffffff811115611489578384fd5b8401601f81018613611499578384fd5b6114a886823560208401611232565b9350506114b7602085016112a8565b91506114c5604085016112a8565b90509250925092565b6000602082840312156114df578081fd5b5035919050565b600081518084526114fe816020860160208601611677565b601f01601f19169290920160200192915050565b60008351611524818460208801611677565b835190830190611538818360208801611677565b01949350505050565b6001600160a01b0385811682528416602082015260408101839052608060608201819052600090611574908301846114e6565b9695505050505050565b602081526000610f6b60208301846114e6565b60208082526032908201527f4552433732313a207472616e7366657220746f206e6f6e20455243373231526560408201527131b2b4bb32b91034b6b83632b6b2b73a32b960711b606082015260800190565b60208082526031908201527f4552433732313a207472616e736665722063616c6c6572206973206e6f74206f6040820152701ddb995c881b9bdc88185c1c1c9bdd9959607a1b606082015260800190565b600082198211156116475761164761170d565b500190565b60008261165b5761165b611723565b500490565b6000828210156116725761167261170d565b500390565b60005b8381101561169257818101518382015260200161167a565b838111156107585750506000910152565b600181811c908216806116b757607f821691505b602082108114156116d857634e487b7160e01b600052602260045260246000fd5b50919050565b60006000198214156116f2576116f261170d565b5060010190565b60008261170857611708611723565b500690565b634e487b7160e01b600052601160045260246000fd5b634e487b7160e01b600052601260045260246000fd5b634e487b7160e01b600052604160045260246000fd5b6001600160e01b03198116811461176557600080fd5b5056fea2646970667358221220a6a76e6e09d44d9d1ad7e1607e1d55cd9e566abbe6f3640f0df990554c21decd64736f6c63430008040033",
  "linkReferences": {},
  "deployedLinkReferences": {}
}