{
  "_format": "hh-sol-artifact-1",
  "contractName": "NFTMarket",
  "sourceName": "contracts/NFTMarket.sol",
  "abi": [
    {
      "inputs": [],
      "stateMutability": "nonpayable",
      "type": "constructor"
    },
    {
      "anonymous": false,
      "inputs": [
        {
          "indexed": false,
          "internalType": "uint256",
          "name": "token",
          "type": "uint256"
        },
        {
          "indexed": false,
          "internalType": "address",
          "name": "owner",
          "type": "address"
        }
      ],
      "name": "CancelSell",
      "type": "event"
    },
    {
      "anonymous": false,
      "inputs": [
        {
          "indexed": false,
          "internalType": "address",
          "name": "nftContract",
          "type": "address"
        },
        {
          "indexed": false,
          "internalType": "address",
          "name": "owner",
          "type": "address"
        },
        {
          "indexed": false,
          "internalType": "address",
          "name": "creator",
          "type": "address"
        },
        {
          "indexed": false,
          "internalType": "uint256",
          "name": "token",
          "type": "uint256"
        },
        {
          "indexed": false,
          "internalType": "uint256",
          "name": "price",
          "type": "uint256"
        }
      ],
      "name": "Item",
      "type": "event"
    },
    {
      "anonymous": false,
      "inputs": [
        {
          "indexed": false,
          "internalType": "address",
          "name": "nftContract",
          "type": "address"
        },
        {
          "indexed": false,
          "internalType": "address",
          "name": "owner",
          "type": "address"
        },
        {
          "indexed": false,
          "internalType": "address",
          "name": "creator",
          "type": "address"
        },
        {
          "indexed": false,
          "internalType": "uint256",
          "name": "token",
          "type": "uint256"
        },
        {
          "indexed": false,
          "internalType": "uint256",
          "name": "price",
          "type": "uint256"
        }
      ],
      "name": "Sold",
      "type": "event"
    },
    {
      "inputs": [
        {
          "internalType": "uint256",
          "name": "",
          "type": "uint256"
        }
      ],
      "name": "Items",
      "outputs": [
        {
          "internalType": "enum NFTMarket.ListingStatus",
          "name": "status",
          "type": "uint8"
        },
        {
          "internalType": "address",
          "name": "nftContract",
          "type": "address"
        },
        {
          "internalType": "address payable",
          "name": "owner",
          "type": "address"
        },
        {
          "internalType": "address payable",
          "name": "creator",
          "type": "address"
        },
        {
          "internalType": "uint256",
          "name": "token",
          "type": "uint256"
        },
        {
          "internalType": "uint256",
          "name": "price",
          "type": "uint256"
        }
      ],
      "stateMutability": "view",
      "type": "function"
    },
    {
      "inputs": [
        {
          "internalType": "uint256",
          "name": "_tokenId",
          "type": "uint256"
        }
      ],
      "name": "buyItem",
      "outputs": [],
      "stateMutability": "payable",
      "type": "function"
    },
    {
      "inputs": [
        {
          "internalType": "uint256",
          "name": "_tokenId",
          "type": "uint256"
        }
      ],
      "name": "cancelSell",
      "outputs": [],
      "stateMutability": "nonpayable",
      "type": "function"
    },
    {
      "inputs": [],
      "name": "fetchCreatorItemsListed",
      "outputs": [
        {
          "components": [
            {
              "internalType": "enum NFTMarket.ListingStatus",
              "name": "status",
              "type": "uint8"
            },
            {
              "internalType": "address",
              "name": "nftContract",
              "type": "address"
            },
            {
              "internalType": "address payable",
              "name": "owner",
              "type": "address"
            },
            {
              "internalType": "address payable",
              "name": "creator",
              "type": "address"
            },
            {
              "internalType": "uint256",
              "name": "token",
              "type": "uint256"
            },
            {
              "internalType": "uint256",
              "name": "price",
              "type": "uint256"
            }
          ],
          "internalType": "struct NFTMarket._Item[]",
          "name": "",
          "type": "tuple[]"
        }
      ],
      "stateMutability": "view",
      "type": "function"
    },
    {
      "inputs": [],
      "name": "fetchMarketItems",
      "outputs": [
        {
          "components": [
            {
              "internalType": "enum NFTMarket.ListingStatus",
              "name": "status",
              "type": "uint8"
            },
            {
              "internalType": "address",
              "name": "nftContract",
              "type": "address"
            },
            {
              "internalType": "address payable",
              "name": "owner",
              "type": "address"
            },
            {
              "internalType": "address payable",
              "name": "creator",
              "type": "address"
            },
            {
              "internalType": "uint256",
              "name": "token",
              "type": "uint256"
            },
            {
              "internalType": "uint256",
              "name": "price",
              "type": "uint256"
            }
          ],
          "internalType": "struct NFTMarket._Item[]",
          "name": "",
          "type": "tuple[]"
        }
      ],
      "stateMutability": "view",
      "type": "function"
    },
    {
      "inputs": [],
      "name": "fetchOwnerItemsListed",
      "outputs": [
        {
          "components": [
            {
              "internalType": "enum NFTMarket.ListingStatus",
              "name": "status",
              "type": "uint8"
            },
            {
              "internalType": "address",
              "name": "nftContract",
              "type": "address"
            },
            {
              "internalType": "address payable",
              "name": "owner",
              "type": "address"
            },
            {
              "internalType": "address payable",
              "name": "creator",
              "type": "address"
            },
            {
              "internalType": "uint256",
              "name": "token",
              "type": "uint256"
            },
            {
              "internalType": "uint256",
              "name": "price",
              "type": "uint256"
            }
          ],
          "internalType": "struct NFTMarket._Item[]",
          "name": "",
          "type": "tuple[]"
        }
      ],
      "stateMutability": "view",
      "type": "function"
    },
    {
      "inputs": [],
      "name": "mintingCost",
      "outputs": [
        {
          "internalType": "uint256",
          "name": "",
          "type": "uint256"
        }
      ],
      "stateMutability": "view",
      "type": "function"
    },
    {
      "inputs": [
        {
          "internalType": "string",
          "name": "uri",
          "type": "string"
        },
        {
          "internalType": "uint256",
          "name": "_price",
          "type": "uint256"
        },
        {
          "internalType": "address",
          "name": "_nftContract",
          "type": "address"
        }
      ],
      "name": "sellItem",
      "outputs": [],
      "stateMutability": "payable",
      "type": "function"
    }
  ],
  "bytecode": "0x6080604052655af3107a400060045534801561001a57600080fd5b506001600055600380546001600160a01b031916331790556112a2806100416000396000f3fe60806040526004361061007b5760003560e01c8063ae8ef20a1161004e578063ae8ef20a14610156578063e7fb74c714610169578063ebf98abf1461017c578063fc50b5d3146101a057600080fd5b806307c9cd45146100805780630f08efe0146100a257806317b47cc4146100cd5780635c90fc6614610141575b600080fd5b34801561008c57600080fd5b506100a061009b36600461105c565b6101b5565b005b3480156100ae57600080fd5b506100b7610376565b6040516100c491906110ae565b60405180910390f35b3480156100d957600080fd5b5061012f6100e836600461105c565b6005602052600090815260409020805460018201546002830154600384015460049094015460ff8416946101009094046001600160a01b0390811694938116939216919086565b6040516100c49695949392919061113d565b34801561014d57600080fd5b506100b7610552565b6100a0610164366004610f96565b61076c565b6100a061017736600461105c565b610abf565b34801561018857600080fd5b5061019260045481565b6040519081526020016100c4565b3480156101ac57600080fd5b506100b7610d29565b600081815260056020526040902060018101546001600160a01b03163314806101ea575060028101546001600160a01b031633145b61023b5760405162461bcd60e51b815260206004820152601d60248201527f4f6e6c79206f776e65722063616e2063616e63656c206c697374696e6700000060448201526064015b60405180910390fd5b6000815460ff16600281111561026157634e487b7160e01b600052602160045260246000fd5b146102a65760405162461bcd60e51b81526020600482015260156024820152744c697374696e67206973206e6f742061637469766560581b6044820152606401610232565b805460ff191660021780825560038201546040516323b872dd60e01b815230600482015233602482015260448101919091526001600160a01b0361010090920491909116906323b872dd90606401600060405180830381600087803b15801561030e57600080fd5b505af1158015610322573d6000803e3d6000fd5b5050505060038101546001820154604080519283526001600160a01b0390911660208301527f9a7ead5b5e3d6b8d3e88f6057599b7eecec51b2aad38c25b8141deaec6dcabc3910160405180910390a15050565b6060600061038360015490565b9050600061039060025490565b60015461039d919061120e565b90506000808267ffffffffffffffff8111156103c957634e487b7160e01b600052604160045260246000fd5b60405190808252806020026020018201604052801561040257816020015b6103ef610f43565b8152602001906001900390816103e75790505b50905060005b848110156105495730600560006104208460016111f6565b81526020810191909152604001600020600101546001600160a01b031614156105375760006104508260016111f6565b60008181526005602052604090819020815160c081019092528054929350918290829060ff16600281111561049557634e487b7160e01b600052602160045260246000fd5b60028111156104b457634e487b7160e01b600052602160045260246000fd5b815281546001600160a01b036101009091048116602083015260018301548116604083015260028301541660608201526003820154608082015260049091015460a090910152845185908790811061051c57634e487b7160e01b600052603260045260246000fd5b60209081029190910101526105326001866111f6565b945050505b8061054181611225565b915050610408565b50949350505050565b6060600061055f60015490565b905060008060005b838110156105c257336005600061057f8460016111f6565b81526020810191909152604001600020600101546001600160a01b031614156105b0576105ad6001846111f6565b92505b806105ba81611225565b915050610567565b5060008267ffffffffffffffff8111156105ec57634e487b7160e01b600052604160045260246000fd5b60405190808252806020026020018201604052801561062557816020015b610612610f43565b81526020019060019003908161060a5790505b50905060005b848110156105495733600560006106438460016111f6565b81526020810191909152604001600020600101546001600160a01b0316141561075a5760006106738260016111f6565b60008181526005602052604090819020815160c081019092528054929350918290829060ff1660028111156106b857634e487b7160e01b600052602160045260246000fd5b60028111156106d757634e487b7160e01b600052602160045260246000fd5b815281546001600160a01b036101009091048116602083015260018301548116604083015260028301541660608201526003820154608082015260049091015460a090910152845185908790811061073f57634e487b7160e01b600052603260045260246000fd5b60209081029190910101526107556001866111f6565b945050505b8061076481611225565b91505061062b565b600260005414156107bf5760405162461bcd60e51b815260206004820152601f60248201527f5265656e7472616e637947756172643a207265656e7472616e742063616c6c006044820152606401610232565b6002600055816108115760405162461bcd60e51b815260206004820152601c60248201527f5072696365206d757374206265206174206c65617374203120776569000000006044820152606401610232565b600454341461086e5760405162461bcd60e51b8152602060048201526024808201527f5072696365206d75737420626520657175616c20746f206c697374696e6720706044820152637269636560e01b6064820152608401610232565b61087c600180546001019055565b600061088760015490565b90506000826001600160a01b0316636af812828630336040518463ffffffff1660e01b81526004016108bb9392919061117d565b602060405180830381600087803b1580156108d557600080fd5b505af11580156108e9573d6000803e3d6000fd5b505050506040513d601f19601f8201168201806040525081019061090d9190611074565b6040805160c0810190915290915080600081526001600160a01b038516602080830191909152306040808401919091523360608401526080830185905260a0909201879052600085815260059091522081518154829060ff1916600183600281111561098957634e487b7160e01b600052602160045260246000fd5b021790555060208201518154610100600160a81b0319166101006001600160a01b03928316021782556040808401516001840180546001600160a01b031990811692851692909217905560608501516002850180549092169084161790556080840151600384015560a09093015160049283015591516323b872dd60e01b8152339181019190915230602482015260448101839052908416906323b872dd90606401600060405180830381600087803b158015610a4557600080fd5b505af1158015610a59573d6000803e3d6000fd5b5050604080516001600160a01b03871681523060208201523381830152606081018590526080810188905290517f14119be79c3c72a43e018782c3768e0f129fd3c6b43e7fd40c621cfd78c5518093509081900360a0019150a150506001600055505050565b60026000541415610b125760405162461bcd60e51b815260206004820152601f60248201527f5265656e7472616e637947756172643a207265656e7472616e742063616c6c006044820152606401610232565b6002600090815581815260056020526040902060048101543414610b785760405162461bcd60e51b815260206004820181905260248201527f5072696365206d75737420626520657175616c20746f204e46542070726963656044820152606401610232565b600181810180546001600160a01b03191633908117909155825460ff1916909117825560028201546001600160a01b031690610bbe575060018101546001600160a01b03165b6040516001600160a01b038216903480156108fc02916000818181858888f19350505050158015610bf3573d6000803e3d6000fd5b50610c02600280546001019055565b815460038301546040516323b872dd60e01b815230600482015233602482015260448101919091526101009091046001600160a01b0316906323b872dd90606401600060405180830381600087803b158015610c5d57600080fd5b505af1158015610c71573d6000803e3d6000fd5b50506003546004546040516001600160a01b03909216935080156108fc029250906000818181858888f19350505050158015610cb1573d6000803e3d6000fd5b508154600283015460038401546004850154604080516001600160a01b0361010090960486168152336020820152949093168484015260608401919091526080830152517f5764dbcef91eb6f946584f4ea671217c686fa7e858ce4f9f42d08422b86556a99181900360a00190a15050600160005550565b60606000610d3660015490565b905060008060005b83811015610d99573360056000610d568460016111f6565b81526020810191909152604001600020600201546001600160a01b03161415610d8757610d846001846111f6565b92505b80610d9181611225565b915050610d3e565b5060008267ffffffffffffffff811115610dc357634e487b7160e01b600052604160045260246000fd5b604051908082528060200260200182016040528015610dfc57816020015b610de9610f43565b815260200190600190039081610de15790505b50905060005b84811015610549573360056000610e1a8460016111f6565b81526020810191909152604001600020600201546001600160a01b03161415610f31576000610e4a8260016111f6565b60008181526005602052604090819020815160c081019092528054929350918290829060ff166002811115610e8f57634e487b7160e01b600052602160045260246000fd5b6002811115610eae57634e487b7160e01b600052602160045260246000fd5b815281546001600160a01b036101009091048116602083015260018301548116604083015260028301541660608201526003820154608082015260049091015460a0909101528451859087908110610f1657634e487b7160e01b600052603260045260246000fd5b6020908102919091010152610f2c6001866111f6565b945050505b80610f3b81611225565b915050610e02565b6040805160c08101909152806000815260006020820181905260408201819052606082018190526080820181905260a09091015290565b80356001600160a01b0381168114610f9157600080fd5b919050565b600080600060608486031215610faa578283fd5b833567ffffffffffffffff80821115610fc1578485fd5b818601915086601f830112610fd4578485fd5b813581811115610fe657610fe6611256565b604051601f8201601f19908116603f0116810190838211818310171561100e5761100e611256565b81604052828152896020848701011115611026578788fd5b82602086016020830137876020848301015280975050505050506020840135915061105360408501610f7a565b90509250925092565b60006020828403121561106d578081fd5b5035919050565b600060208284031215611085578081fd5b5051919050565b600381106110aa57634e487b7160e01b600052602160045260246000fd5b9052565b602080825282518282018190526000919060409081850190868401855b828110156111305781516110e085825161108c565b808701516001600160a01b039081168689015286820151811687870152606080830151909116908601526080808201519086015260a0908101519085015260c090930192908501906001016110cb565b5091979650505050505050565b60c0810161114b828961108c565b6001600160a01b0396871660208301529486166040820152929094166060830152608082015260a00191909152919050565b6060815260008451806060840152815b818110156111aa576020818801810151608086840101520161118d565b818111156111bb5782608083860101525b506001600160a01b0385166020840152601f01601f1916820160800190506111ee60408301846001600160a01b03169052565b949350505050565b6000821982111561120957611209611240565b500190565b60008282101561122057611220611240565b500390565b600060001982141561123957611239611240565b5060010190565b634e487b7160e01b600052601160045260246000fd5b634e487b7160e01b600052604160045260246000fdfea264697066735822122082633ea525bc913f4999fa764a7664cc83087f0dea44e84e92431f0ff2b488fa64736f6c63430008040033",
  "linkReferences": {},
  "deployedLinkReferences": {}
}