{
  "_format": "hh-sol-artifact-1",
  "contractName": "NFTMarket",
  "sourceName": "contracts/NFTMarket.sol",
  "abi": [
    {
      "inputs": [],
      "stateMutability": "nonpayable",
      "type": "constructor"
    },
    {
      "anonymous": false,
      "inputs": [
        {
          "indexed": false,
          "internalType": "uint256",
          "name": "token",
          "type": "uint256"
        },
        {
          "indexed": false,
          "internalType": "address",
          "name": "owner",
          "type": "address"
        }
      ],
      "name": "CancelSell",
      "type": "event"
    },
    {
      "anonymous": false,
      "inputs": [
        {
          "indexed": false,
          "internalType": "address",
          "name": "nftContract",
          "type": "address"
        },
        {
          "indexed": false,
          "internalType": "address",
          "name": "owner",
          "type": "address"
        },
        {
          "indexed": false,
          "internalType": "address",
          "name": "creator",
          "type": "address"
        },
        {
          "indexed": false,
          "internalType": "uint256",
          "name": "token",
          "type": "uint256"
        },
        {
          "indexed": false,
          "internalType": "uint256",
          "name": "price",
          "type": "uint256"
        }
      ],
      "name": "Item",
      "type": "event"
    },
    {
      "anonymous": false,
      "inputs": [
        {
          "indexed": false,
          "internalType": "address",
          "name": "nftContract",
          "type": "address"
        },
        {
          "indexed": false,
          "internalType": "address",
          "name": "owner",
          "type": "address"
        },
        {
          "indexed": false,
          "internalType": "address",
          "name": "creator",
          "type": "address"
        },
        {
          "indexed": false,
          "internalType": "uint256",
          "name": "token",
          "type": "uint256"
        },
        {
          "indexed": false,
          "internalType": "uint256",
          "name": "price",
          "type": "uint256"
        }
      ],
      "name": "Sold",
      "type": "event"
    },
    {
      "inputs": [
        {
          "internalType": "uint256",
          "name": "",
          "type": "uint256"
        }
      ],
      "name": "Items",
      "outputs": [
        {
          "internalType": "enum NFTMarket.ListingStatus",
          "name": "status",
          "type": "uint8"
        },
        {
          "internalType": "address",
          "name": "nftContract",
          "type": "address"
        },
        {
          "internalType": "address payable",
          "name": "owner",
          "type": "address"
        },
        {
          "internalType": "address payable",
          "name": "creator",
          "type": "address"
        },
        {
          "internalType": "uint256",
          "name": "token",
          "type": "uint256"
        },
        {
          "internalType": "uint256",
          "name": "price",
          "type": "uint256"
        }
      ],
      "stateMutability": "view",
      "type": "function"
    },
    {
      "inputs": [
        {
          "internalType": "uint256",
          "name": "_tokenId",
          "type": "uint256"
        }
      ],
      "name": "buyItem",
      "outputs": [],
      "stateMutability": "payable",
      "type": "function"
    },
    {
      "inputs": [
        {
          "internalType": "uint256",
          "name": "_tokenId",
          "type": "uint256"
        }
      ],
      "name": "cancelSell",
      "outputs": [],
      "stateMutability": "nonpayable",
      "type": "function"
    },
    {
      "inputs": [],
      "name": "fetchCreatorItemsListed",
      "outputs": [
        {
          "components": [
            {
              "internalType": "enum NFTMarket.ListingStatus",
              "name": "status",
              "type": "uint8"
            },
            {
              "internalType": "address",
              "name": "nftContract",
              "type": "address"
            },
            {
              "internalType": "address payable",
              "name": "owner",
              "type": "address"
            },
            {
              "internalType": "address payable",
              "name": "creator",
              "type": "address"
            },
            {
              "internalType": "uint256",
              "name": "token",
              "type": "uint256"
            },
            {
              "internalType": "uint256",
              "name": "price",
              "type": "uint256"
            }
          ],
          "internalType": "struct NFTMarket._Item[]",
          "name": "",
          "type": "tuple[]"
        }
      ],
      "stateMutability": "view",
      "type": "function"
    },
    {
      "inputs": [],
      "name": "fetchMarketItems",
      "outputs": [
        {
          "components": [
            {
              "internalType": "enum NFTMarket.ListingStatus",
              "name": "status",
              "type": "uint8"
            },
            {
              "internalType": "address",
              "name": "nftContract",
              "type": "address"
            },
            {
              "internalType": "address payable",
              "name": "owner",
              "type": "address"
            },
            {
              "internalType": "address payable",
              "name": "creator",
              "type": "address"
            },
            {
              "internalType": "uint256",
              "name": "token",
              "type": "uint256"
            },
            {
              "internalType": "uint256",
              "name": "price",
              "type": "uint256"
            }
          ],
          "internalType": "struct NFTMarket._Item[]",
          "name": "",
          "type": "tuple[]"
        }
      ],
      "stateMutability": "view",
      "type": "function"
    },
    {
      "inputs": [],
      "name": "fetchOwnerItemsListed",
      "outputs": [
        {
          "components": [
            {
              "internalType": "enum NFTMarket.ListingStatus",
              "name": "status",
              "type": "uint8"
            },
            {
              "internalType": "address",
              "name": "nftContract",
              "type": "address"
            },
            {
              "internalType": "address payable",
              "name": "owner",
              "type": "address"
            },
            {
              "internalType": "address payable",
              "name": "creator",
              "type": "address"
            },
            {
              "internalType": "uint256",
              "name": "token",
              "type": "uint256"
            },
            {
              "internalType": "uint256",
              "name": "price",
              "type": "uint256"
            }
          ],
          "internalType": "struct NFTMarket._Item[]",
          "name": "",
          "type": "tuple[]"
        }
      ],
      "stateMutability": "view",
      "type": "function"
    },
    {
      "inputs": [],
      "name": "mintingCost",
      "outputs": [
        {
          "internalType": "uint256",
          "name": "",
          "type": "uint256"
        }
      ],
      "stateMutability": "view",
      "type": "function"
    },
    {
      "inputs": [
        {
          "internalType": "string",
          "name": "uri",
          "type": "string"
        },
        {
          "internalType": "uint256",
          "name": "_price",
          "type": "uint256"
        },
        {
          "internalType": "address",
          "name": "_nftContract",
          "type": "address"
        }
      ],
      "name": "sellItem",
      "outputs": [],
      "stateMutability": "payable",
      "type": "function"
    }
  ],
  "bytecode": "0x6080604052655af3107a400060045534801561001a57600080fd5b50600160008190555033600360006101000a81548173ffffffffffffffffffffffffffffffffffffffff021916908373ffffffffffffffffffffffffffffffffffffffff16021790555061253c806100736000396000f3fe60806040526004361061007b5760003560e01c8063ae8ef20a1161004e578063ae8ef20a14610141578063e7fb74c71461015d578063ebf98abf14610179578063fc50b5d3146101a45761007b565b806307c9cd45146100805780630f08efe0146100a957806317b47cc4146100d45780635c90fc6614610116575b600080fd5b34801561008c57600080fd5b506100a760048036038101906100a29190611af9565b6101cf565b005b3480156100b557600080fd5b506100be6104e5565b6040516100cb9190611eab565b60405180910390f35b3480156100e057600080fd5b506100fb60048036038101906100f69190611af9565b61085c565b60405161010d96959493929190611ecd565b60405180910390f35b34801561012257600080fd5b5061012b610905565b6040516101389190611eab565b60405180910390f35b61015b60048036038101906101569190611a92565b610d01565b005b61017760048036038101906101729190611af9565b61113b565b005b34801561018557600080fd5b5061018e611515565b60405161019b919061202c565b60405180910390f35b3480156101b057600080fd5b506101b961151b565b6040516101c69190611eab565b60405180910390f35b60006005600083815260200190815260200160002090508060010160009054906101000a900473ffffffffffffffffffffffffffffffffffffffff1673ffffffffffffffffffffffffffffffffffffffff163373ffffffffffffffffffffffffffffffffffffffff16148061029357508060020160009054906101000a900473ffffffffffffffffffffffffffffffffffffffff1673ffffffffffffffffffffffffffffffffffffffff163373ffffffffffffffffffffffffffffffffffffffff16145b6102d2576040517f08c379a00000000000000000000000000000000000000000000000000000000081526004016102c99061200c565b60405180910390fd5b6000600281111561030c577f4e487b7100000000000000000000000000000000000000000000000000000000600052602160045260246000fd5b8160000160009054906101000a900460ff166002811115610356577f4e487b7100000000000000000000000000000000000000000000000000000000600052602160045260246000fd5b14610396576040517f08c379a000000000000000000000000000000000000000000000000000000000815260040161038d90611f8c565b60405180910390fd5b60028160000160006101000a81548160ff021916908360028111156103e4577f4e487b7100000000000000000000000000000000000000000000000000000000600052602160045260246000fd5b02179055508060000160019054906101000a900473ffffffffffffffffffffffffffffffffffffffff1673ffffffffffffffffffffffffffffffffffffffff166323b872dd303384600301546040518463ffffffff1660e01b815260040161044e93929190611e74565b600060405180830381600087803b15801561046857600080fd5b505af115801561047c573d6000803e3d6000fd5b505050507f9a7ead5b5e3d6b8d3e88f6057599b7eecec51b2aad38c25b8141deaec6dcabc381600301548260010160009054906101000a900473ffffffffffffffffffffffffffffffffffffffff166040516104d9929190612047565b60405180910390a15050565b606060006104f36001611917565b905060006105016002611917565b61050b6001611917565b6105159190612171565b90506000808267ffffffffffffffff81111561055a577f4e487b7100000000000000000000000000000000000000000000000000000000600052604160045260246000fd5b60405190808252806020026020018201604052801561059357816020015b61058061193b565b8152602001906001900390816105785790505b50905060005b84811015610851573073ffffffffffffffffffffffffffffffffffffffff16600560006001846105c9919061211b565b815260200190815260200160002060010160009054906101000a900473ffffffffffffffffffffffffffffffffffffffff1673ffffffffffffffffffffffffffffffffffffffff16141561083e576000600182610626919061211b565b90506000600560008381526020019081526020016000209050806040518060c00160405290816000820160009054906101000a900460ff166002811115610696577f4e487b7100000000000000000000000000000000000000000000000000000000600052602160045260246000fd5b60028111156106ce577f4e487b7100000000000000000000000000000000000000000000000000000000600052602160045260246000fd5b81526020016000820160019054906101000a900473ffffffffffffffffffffffffffffffffffffffff1673ffffffffffffffffffffffffffffffffffffffff1673ffffffffffffffffffffffffffffffffffffffff1681526020016001820160009054906101000a900473ffffffffffffffffffffffffffffffffffffffff1673ffffffffffffffffffffffffffffffffffffffff1673ffffffffffffffffffffffffffffffffffffffff1681526020016002820160009054906101000a900473ffffffffffffffffffffffffffffffffffffffff1673ffffffffffffffffffffffffffffffffffffffff1673ffffffffffffffffffffffffffffffffffffffff16815260200160038201548152602001600482015481525050848681518110610821577f4e487b7100000000000000000000000000000000000000000000000000000000600052603260045260246000fd5b6020026020010181905250600185610839919061211b565b945050505b8080610849906122c1565b915050610599565b508094505050505090565b60056020528060005260406000206000915090508060000160009054906101000a900460ff16908060000160019054906101000a900473ffffffffffffffffffffffffffffffffffffffff16908060010160009054906101000a900473ffffffffffffffffffffffffffffffffffffffff16908060020160009054906101000a900473ffffffffffffffffffffffffffffffffffffffff16908060030154908060040154905086565b606060006109136001611917565b905060008060005b838110156109bc573373ffffffffffffffffffffffffffffffffffffffff166005600060018461094b919061211b565b815260200190815260200160002060010160009054906101000a900473ffffffffffffffffffffffffffffffffffffffff1673ffffffffffffffffffffffffffffffffffffffff1614156109a9576001836109a6919061211b565b92505b80806109b4906122c1565b91505061091b565b5060008267ffffffffffffffff8111156109ff577f4e487b7100000000000000000000000000000000000000000000000000000000600052604160045260246000fd5b604051908082528060200260200182016040528015610a3857816020015b610a2561193b565b815260200190600190039081610a1d5790505b50905060005b84811015610cf6573373ffffffffffffffffffffffffffffffffffffffff1660056000600184610a6e919061211b565b815260200190815260200160002060010160009054906101000a900473ffffffffffffffffffffffffffffffffffffffff1673ffffffffffffffffffffffffffffffffffffffff161415610ce3576000600182610acb919061211b565b90506000600560008381526020019081526020016000209050806040518060c00160405290816000820160009054906101000a900460ff166002811115610b3b577f4e487b7100000000000000000000000000000000000000000000000000000000600052602160045260246000fd5b6002811115610b73577f4e487b7100000000000000000000000000000000000000000000000000000000600052602160045260246000fd5b81526020016000820160019054906101000a900473ffffffffffffffffffffffffffffffffffffffff1673ffffffffffffffffffffffffffffffffffffffff1673ffffffffffffffffffffffffffffffffffffffff1681526020016001820160009054906101000a900473ffffffffffffffffffffffffffffffffffffffff1673ffffffffffffffffffffffffffffffffffffffff1673ffffffffffffffffffffffffffffffffffffffff1681526020016002820160009054906101000a900473ffffffffffffffffffffffffffffffffffffffff1673ffffffffffffffffffffffffffffffffffffffff1673ffffffffffffffffffffffffffffffffffffffff16815260200160038201548152602001600482015481525050848681518110610cc6577f4e487b7100000000000000000000000000000000000000000000000000000000600052603260045260246000fd5b6020026020010181905250600185610cde919061211b565b945050505b8080610cee906122c1565b915050610a3e565b508094505050505090565b60026000541415610d47576040517f08c379a0000000000000000000000000000000000000000000000000000000008152600401610d3e90611fcc565b60405180910390fd5b600260008190555060008211610d92576040517f08c379a0000000000000000000000000000000000000000000000000000000008152600401610d8990611fec565b60405180910390fd5b6004543414610dd6576040517f08c379a0000000000000000000000000000000000000000000000000000000008152600401610dcd90611fac565b60405180910390fd5b610de06001611925565b6000610dec6001611917565b905060008273ffffffffffffffffffffffffffffffffffffffff16636af812828630336040518463ffffffff1660e01b8152600401610e2d93929190611f2e565b602060405180830381600087803b158015610e4757600080fd5b505af1158015610e5b573d6000803e3d6000fd5b505050506040513d601f19601f82011682018060405250810190610e7f9190611b22565b90506040518060c0016040528060006002811115610ec6577f4e487b7100000000000000000000000000000000000000000000000000000000600052602160045260246000fd5b81526020018473ffffffffffffffffffffffffffffffffffffffff1681526020013073ffffffffffffffffffffffffffffffffffffffff1681526020013373ffffffffffffffffffffffffffffffffffffffff168152602001828152602001858152506005600084815260200190815260200160002060008201518160000160006101000a81548160ff02191690836002811115610f8d577f4e487b7100000000000000000000000000000000000000000000000000000000600052602160045260246000fd5b021790555060208201518160000160016101000a81548173ffffffffffffffffffffffffffffffffffffffff021916908373ffffffffffffffffffffffffffffffffffffffff16021790555060408201518160010160006101000a81548173ffffffffffffffffffffffffffffffffffffffff021916908373ffffffffffffffffffffffffffffffffffffffff16021790555060608201518160020160006101000a81548173ffffffffffffffffffffffffffffffffffffffff021916908373ffffffffffffffffffffffffffffffffffffffff1602179055506080820151816003015560a082015181600401559050508273ffffffffffffffffffffffffffffffffffffffff166323b872dd3330846040518463ffffffff1660e01b81526004016110bb93929190611e74565b600060405180830381600087803b1580156110d557600080fd5b505af11580156110e9573d6000803e3d6000fd5b505050507f14119be79c3c72a43e018782c3768e0f129fd3c6b43e7fd40c621cfd78c551808330338488604051611124959493929190611dce565b60405180910390a150506001600081905550505050565b60026000541415611181576040517f08c379a000000000000000000000000000000000000000000000000000000000815260040161117890611fcc565b60405180910390fd5b60026000819055506000600560008381526020019081526020016000209050348160040154146111e6576040517f08c379a00000000000000000000000000000000000000000000000000000000081526004016111dd90611f6c565b60405180910390fd5b338160010160006101000a81548173ffffffffffffffffffffffffffffffffffffffff021916908373ffffffffffffffffffffffffffffffffffffffff16021790555060018160000160006101000a81548160ff02191690836002811115611277577f4e487b7100000000000000000000000000000000000000000000000000000000600052602160045260246000fd5b021790555060008160020160009054906101000a900473ffffffffffffffffffffffffffffffffffffffff169050600073ffffffffffffffffffffffffffffffffffffffff168260010160009054906101000a900473ffffffffffffffffffffffffffffffffffffffff1673ffffffffffffffffffffffffffffffffffffffff161415611326578160010160009054906101000a900473ffffffffffffffffffffffffffffffffffffffff1690505b8073ffffffffffffffffffffffffffffffffffffffff166108fc349081150290604051600060405180830381858888f1935050505015801561136c573d6000803e3d6000fd5b506113776002611925565b8160000160019054906101000a900473ffffffffffffffffffffffffffffffffffffffff1673ffffffffffffffffffffffffffffffffffffffff166323b872dd303385600301546040518463ffffffff1660e01b81526004016113dc93929190611e74565b600060405180830381600087803b1580156113f657600080fd5b505af115801561140a573d6000803e3d6000fd5b50505050600360009054906101000a900473ffffffffffffffffffffffffffffffffffffffff1673ffffffffffffffffffffffffffffffffffffffff166108fc6004549081150290604051600060405180830381858888f19350505050158015611478573d6000803e3d6000fd5b507f5764dbcef91eb6f946584f4ea671217c686fa7e858ce4f9f42d08422b86556a98260000160019054906101000a900473ffffffffffffffffffffffffffffffffffffffff16338460020160009054906101000a900473ffffffffffffffffffffffffffffffffffffffff1685600301548660040154604051611500959493929190611e21565b60405180910390a15050600160008190555050565b60045481565b606060006115296001611917565b905060008060005b838110156115d2573373ffffffffffffffffffffffffffffffffffffffff1660056000600184611561919061211b565b815260200190815260200160002060020160009054906101000a900473ffffffffffffffffffffffffffffffffffffffff1673ffffffffffffffffffffffffffffffffffffffff1614156115bf576001836115bc919061211b565b92505b80806115ca906122c1565b915050611531565b5060008267ffffffffffffffff811115611615577f4e487b7100000000000000000000000000000000000000000000000000000000600052604160045260246000fd5b60405190808252806020026020018201604052801561164e57816020015b61163b61193b565b8152602001906001900390816116335790505b50905060005b8481101561190c573373ffffffffffffffffffffffffffffffffffffffff1660056000600184611684919061211b565b815260200190815260200160002060020160009054906101000a900473ffffffffffffffffffffffffffffffffffffffff1673ffffffffffffffffffffffffffffffffffffffff1614156118f95760006001826116e1919061211b565b90506000600560008381526020019081526020016000209050806040518060c00160405290816000820160009054906101000a900460ff166002811115611751577f4e487b7100000000000000000000000000000000000000000000000000000000600052602160045260246000fd5b6002811115611789577f4e487b7100000000000000000000000000000000000000000000000000000000600052602160045260246000fd5b81526020016000820160019054906101000a900473ffffffffffffffffffffffffffffffffffffffff1673ffffffffffffffffffffffffffffffffffffffff1673ffffffffffffffffffffffffffffffffffffffff1681526020016001820160009054906101000a900473ffffffffffffffffffffffffffffffffffffffff1673ffffffffffffffffffffffffffffffffffffffff1673ffffffffffffffffffffffffffffffffffffffff1681526020016002820160009054906101000a900473ffffffffffffffffffffffffffffffffffffffff1673ffffffffffffffffffffffffffffffffffffffff1673ffffffffffffffffffffffffffffffffffffffff168152602001600382015481526020016004820154815250508486815181106118dc577f4e487b7100000000000000000000000000000000000000000000000000000000600052603260045260246000fd5b60200260200101819052506001856118f4919061211b565b945050505b8080611904906122c1565b915050611654565b508094505050505090565b600081600001549050919050565b6001816000016000828254019250508190555050565b6040518060c0016040528060006002811115611980577f4e487b7100000000000000000000000000000000000000000000000000000000600052602160045260246000fd5b8152602001600073ffffffffffffffffffffffffffffffffffffffff168152602001600073ffffffffffffffffffffffffffffffffffffffff168152602001600073ffffffffffffffffffffffffffffffffffffffff16815260200160008152602001600081525090565b60006119fe6119f984612095565b612070565b905082815260208101848484011115611a1657600080fd5b611a2184828561224e565b509392505050565b600081359050611a38816124d8565b92915050565b600082601f830112611a4f57600080fd5b8135611a5f8482602086016119eb565b91505092915050565b600081359050611a77816124ef565b92915050565b600081519050611a8c816124ef565b92915050565b600080600060608486031215611aa757600080fd5b600084013567ffffffffffffffff811115611ac157600080fd5b611acd86828701611a3e565b9350506020611ade86828701611a68565b9250506040611aef86828701611a29565b9150509250925092565b600060208284031215611b0b57600080fd5b6000611b1984828501611a68565b91505092915050565b600060208284031215611b3457600080fd5b6000611b4284828501611a7d565b91505092915050565b6000611b578383611d35565b60c08301905092915050565b611b6c81612206565b82525050565b611b7b816121b7565b82525050565b611b8a816121b7565b82525050565b611b99816121a5565b82525050565b611ba8816121a5565b82525050565b6000611bb9826120d6565b611bc381856120f9565b9350611bce836120c6565b8060005b83811015611bff578151611be68882611b4b565b9750611bf1836120ec565b925050600181019050611bd2565b5085935050505092915050565b611c1581612218565b82525050565b611c2481612218565b82525050565b6000611c35826120e1565b611c3f818561210a565b9350611c4f81856020860161225d565b611c5881612397565b840191505092915050565b6000611c7060208361210a565b9150611c7b826123a8565b602082019050919050565b6000611c9360158361210a565b9150611c9e826123d1565b602082019050919050565b6000611cb660248361210a565b9150611cc1826123fa565b604082019050919050565b6000611cd9601f8361210a565b9150611ce482612449565b602082019050919050565b6000611cfc601c8361210a565b9150611d0782612472565b602082019050919050565b6000611d1f601d8361210a565b9150611d2a8261249b565b602082019050919050565b60c082016000820151611d4b6000850182611c0c565b506020820151611d5e6020850182611b90565b506040820151611d716040850182611b72565b506060820151611d846060850182611b72565b506080820151611d976080850182611db0565b5060a0820151611daa60a0850182611db0565b50505050565b611db9816121fc565b82525050565b611dc8816121fc565b82525050565b600060a082019050611de36000830188611b9f565b611df06020830187611b63565b611dfd6040830186611b63565b611e0a6060830185611dbf565b611e176080830184611dbf565b9695505050505050565b600060a082019050611e366000830188611b9f565b611e436020830187611b9f565b611e506040830186611b63565b611e5d6060830185611dbf565b611e6a6080830184611dbf565b9695505050505050565b6000606082019050611e896000830186611b9f565b611e966020830185611b9f565b611ea36040830184611dbf565b949350505050565b60006020820190508181036000830152611ec58184611bae565b905092915050565b600060c082019050611ee26000830189611c1b565b611eef6020830188611b9f565b611efc6040830187611b81565b611f096060830186611b81565b611f166080830185611dbf565b611f2360a0830184611dbf565b979650505050505050565b60006060820190508181036000830152611f488186611c2a565b9050611f576020830185611b9f565b611f646040830184611b9f565b949350505050565b60006020820190508181036000830152611f8581611c63565b9050919050565b60006020820190508181036000830152611fa581611c86565b9050919050565b60006020820190508181036000830152611fc581611ca9565b9050919050565b60006020820190508181036000830152611fe581611ccc565b9050919050565b6000602082019050818103600083015261200581611cef565b9050919050565b6000602082019050818103600083015261202581611d12565b9050919050565b60006020820190506120416000830184611dbf565b92915050565b600060408201905061205c6000830185611dbf565b6120696020830184611b63565b9392505050565b600061207a61208b565b90506120868282612290565b919050565b6000604051905090565b600067ffffffffffffffff8211156120b0576120af612368565b5b6120b982612397565b9050602081019050919050565b6000819050602082019050919050565b600081519050919050565b600081519050919050565b6000602082019050919050565b600082825260208201905092915050565b600082825260208201905092915050565b6000612126826121fc565b9150612131836121fc565b9250827fffffffffffffffffffffffffffffffffffffffffffffffffffffffffffffffff038211156121665761216561230a565b5b828201905092915050565b600061217c826121fc565b9150612187836121fc565b92508282101561219a5761219961230a565b5b828203905092915050565b60006121b0826121dc565b9050919050565b60006121c2826121dc565b9050919050565b60008190506121d7826124c4565b919050565b600073ffffffffffffffffffffffffffffffffffffffff82169050919050565b6000819050919050565b60006122118261222a565b9050919050565b6000612223826121c9565b9050919050565b60006122358261223c565b9050919050565b6000612247826121dc565b9050919050565b82818337600083830152505050565b60005b8381101561227b578082015181840152602081019050612260565b8381111561228a576000848401525b50505050565b61229982612397565b810181811067ffffffffffffffff821117156122b8576122b7612368565b5b80604052505050565b60006122cc826121fc565b91507fffffffffffffffffffffffffffffffffffffffffffffffffffffffffffffffff8214156122ff576122fe61230a565b5b600182019050919050565b7f4e487b7100000000000000000000000000000000000000000000000000000000600052601160045260246000fd5b7f4e487b7100000000000000000000000000000000000000000000000000000000600052602160045260246000fd5b7f4e487b7100000000000000000000000000000000000000000000000000000000600052604160045260246000fd5b6000601f19601f8301169050919050565b7f5072696365206d75737420626520657175616c20746f204e4654207072696365600082015250565b7f4c697374696e67206973206e6f74206163746976650000000000000000000000600082015250565b7f5072696365206d75737420626520657175616c20746f206c697374696e67207060008201527f7269636500000000000000000000000000000000000000000000000000000000602082015250565b7f5265656e7472616e637947756172643a207265656e7472616e742063616c6c00600082015250565b7f5072696365206d757374206265206174206c6561737420312077656900000000600082015250565b7f4f6e6c79206f776e65722063616e2063616e63656c206c697374696e67000000600082015250565b600381106124d5576124d4612339565b5b50565b6124e1816121a5565b81146124ec57600080fd5b50565b6124f8816121fc565b811461250357600080fd5b5056fea264697066735822122094b037d3ee4038d8cd6ad8ae0dd7a6da3153cdcc7eac8b05f284ea200c33cb0d64736f6c63430008040033",
  "linkReferences": {},
  "deployedLinkReferences": {}
}